{
  "contractName": "MinterRole",
  "abi": [
    {
      "inputs": [],
      "payable": false,
      "stateMutability": "nonpayable",
      "type": "constructor"
    },
    {
      "anonymous": false,
      "inputs": [
        {
          "indexed": true,
          "name": "account",
          "type": "address"
        }
      ],
      "name": "MinterAdded",
      "type": "event"
    },
    {
      "anonymous": false,
      "inputs": [
        {
          "indexed": true,
          "name": "account",
          "type": "address"
        }
      ],
      "name": "MinterRemoved",
      "type": "event"
    },
    {
      "constant": true,
      "inputs": [
        {
          "name": "account",
          "type": "address"
        }
      ],
      "name": "isMinter",
      "outputs": [
        {
          "name": "",
          "type": "bool"
        }
      ],
      "payable": false,
      "stateMutability": "view",
      "type": "function"
    },
    {
      "constant": false,
      "inputs": [
        {
          "name": "account",
          "type": "address"
        }
      ],
      "name": "addMinter",
      "outputs": [],
      "payable": false,
      "stateMutability": "nonpayable",
      "type": "function"
    },
    {
      "constant": false,
      "inputs": [],
      "name": "renounceMinter",
      "outputs": [],
      "payable": false,
      "stateMutability": "nonpayable",
      "type": "function"
    }
  ],
  "bytecode": "0x608060405234801561001057600080fd5b506100293361002e640100000000026401000000009004565b61012f565b61004f816000610095640100000000026102a1179091906401000000009004565b8073ffffffffffffffffffffffffffffffffffffffff167f6ae172837ea30b801fbfcdd4108aa1d5bf8ff775444fd70256b44e6bf3dfc3f660405160405180910390a250565b600073ffffffffffffffffffffffffffffffffffffffff168173ffffffffffffffffffffffffffffffffffffffff16141515156100d157600080fd5b60018260000160008373ffffffffffffffffffffffffffffffffffffffff1673ffffffffffffffffffffffffffffffffffffffff16815260200190815260200160002060006101000a81548160ff0219169083151502179055505050565b6104018061013e6000396000f300608060405260043610610057576000357c0100000000000000000000000000000000000000000000000000000000900463ffffffff168063983b2d561461005c578063986502751461009f578063aa271e1a146100b6575b600080fd5b34801561006857600080fd5b5061009d600480360381019080803573ffffffffffffffffffffffffffffffffffffffff169060200190929190505050610111565b005b3480156100ab57600080fd5b506100b4610131565b005b3480156100c257600080fd5b506100f7600480360381019080803573ffffffffffffffffffffffffffffffffffffffff16906020019092919050505061013c565b604051808215151515815260200191505060405180910390f35b61011a3361013c565b151561012557600080fd5b61012e81610159565b50565b61013a336101b3565b565b600061015282600061020d90919063ffffffff16565b9050919050565b61016d8160006102a190919063ffffffff16565b8073ffffffffffffffffffffffffffffffffffffffff167f6ae172837ea30b801fbfcdd4108aa1d5bf8ff775444fd70256b44e6bf3dfc3f660405160405180910390a250565b6101c781600061033b90919063ffffffff16565b8073ffffffffffffffffffffffffffffffffffffffff167fe94479a9f7e1952cc78f2d6baab678adc1b772d936c6583def489e524cb6669260405160405180910390a250565b60008073ffffffffffffffffffffffffffffffffffffffff168273ffffffffffffffffffffffffffffffffffffffff161415151561024a57600080fd5b8260000160008373ffffffffffffffffffffffffffffffffffffffff1673ffffffffffffffffffffffffffffffffffffffff16815260200190815260200160002060009054906101000a900460ff16905092915050565b600073ffffffffffffffffffffffffffffffffffffffff168173ffffffffffffffffffffffffffffffffffffffff16141515156102dd57600080fd5b60018260000160008373ffffffffffffffffffffffffffffffffffffffff1673ffffffffffffffffffffffffffffffffffffffff16815260200190815260200160002060006101000a81548160ff0219169083151502179055505050565b600073ffffffffffffffffffffffffffffffffffffffff168173ffffffffffffffffffffffffffffffffffffffff161415151561037757600080fd5b60008260000160008373ffffffffffffffffffffffffffffffffffffffff1673ffffffffffffffffffffffffffffffffffffffff16815260200190815260200160002060006101000a81548160ff02191690831515021790555050505600a165627a7a72305820330b8edadc400cfacc59c865c2b529ef585f4c99f89d4226a56c199fd1db90360029",
  "source": "pragma solidity ^0.4.24;\n\nimport \"../Roles.sol\";\n\ncontract MinterRole {\n  using Roles for Roles.Role;\n\n  event MinterAdded(address indexed account);\n  event MinterRemoved(address indexed account);\n\n  Roles.Role private minters;\n\n  constructor() public {\n    _addMinter(msg.sender);\n  }\n\n  modifier onlyMinter() {\n    require(isMinter(msg.sender));\n    _;\n  }\n\n  function isMinter(address account) public view returns (bool) {\n    return minters.has(account);\n  }\n\n  function addMinter(address account) public onlyMinter {\n    _addMinter(account);\n  }\n\n  function renounceMinter() public {\n    _removeMinter(msg.sender);\n  }\n\n  function _addMinter(address account) internal {\n    minters.add(account);\n    emit MinterAdded(account);\n  }\n\n  function _removeMinter(address account) internal {\n    minters.remove(account);\n    emit MinterRemoved(account);\n  }\n}\n",
  "sourcePath": "openzeppelin-solidity/contracts/access/roles/MinterRole.sol",
  "compiler": {
    "name": "solc",
    "version": "0.4.24+commit.e67f0147.Emscripten.clang"
  },
  "schemaVersion": "2.0.1",
  "updatedAt": "2018-10-06T09:22:18.295Z"
}