{
  "contractName": "TweEthVoter",
  "abi": [
    {
      "inputs": [
        {
          "name": "_tokenAddress",
          "type": "address"
        },
        {
          "name": "_quorumTokensPercentage",
          "type": "uint256"
        },
        {
          "name": "_proposerAmount",
          "type": "uint256"
        }
      ],
      "payable": false,
      "stateMutability": "nonpayable",
      "type": "constructor"
    },
    {
      "constant": false,
      "inputs": [
        {
          "name": "id",
          "type": "bytes32"
        }
      ],
      "name": "propose",
      "outputs": [
        {
          "name": "success",
          "type": "bool"
        }
      ],
      "payable": false,
      "stateMutability": "nonpayable",
      "type": "function"
    },
    {
      "constant": false,
      "inputs": [
        {
          "name": "id",
          "type": "bytes32"
        },
        {
          "name": "amount",
          "type": "uint256"
        },
        {
          "name": "voteYes",
          "type": "bool"
        }
      ],
      "name": "vote",
      "outputs": [
        {
          "name": "success",
          "type": "bool"
        }
      ],
      "payable": false,
      "stateMutability": "nonpayable",
      "type": "function"
    },
    {
      "constant": false,
      "inputs": [
        {
          "name": "id",
          "type": "bytes32"
        }
      ],
      "name": "close",
      "outputs": [
        {
          "name": "success",
          "type": "bool"
        }
      ],
      "payable": false,
      "stateMutability": "nonpayable",
      "type": "function"
    },
    {
      "constant": false,
      "inputs": [
        {
          "name": "ids",
          "type": "bytes32[]"
        }
      ],
      "name": "claim",
      "outputs": [
        {
          "name": "sent",
          "type": "bool"
        }
      ],
      "payable": false,
      "stateMutability": "nonpayable",
      "type": "function"
    }
  ],
  "bytecode": "0x608060405261025860015534801561001657600080fd5b50604051606080611540833981018060405281019080805190602001909291908051906020019092919080519060200190929190505050826000806101000a81548173ffffffffffffffffffffffffffffffffffffffff021916908373ffffffffffffffffffffffffffffffffffffffff1602179055508160028190555080600381905550505050611493806100ad6000396000f300608060405260043610610062576000357c0100000000000000000000000000000000000000000000000000000000900463ffffffff1680632c729fd11461006757806339c79e0c146100c657806399882cdb1461010f578063b391c50814610158575b600080fd5b34801561007357600080fd5b506100ac6004803603810190808035600019169060200190929190803590602001909291908035151590602001909291905050506101ab565b604051808215151515815260200191505060405180910390f35b3480156100d257600080fd5b506100f5600480360381019080803560001916906020019092919050505061055d565b604051808215151515815260200191505060405180910390f35b34801561011b57600080fd5b5061013e6004803603810190808035600019169060200190929190505050610949565b604051808215151515815260200191505060405180910390f35b34801561016457600080fd5b50610191600480360381019080803590602001908201803590602001919091929391929390505050610c04565b604051808215151515815260200191505060405180910390f35b6000806004600086600019166000191681526020019081526020016000206001015414158015610203575060046000856000191660001916815260200190815260200160002060020160009054906101000a900460ff165b15610551576000809054906101000a900473ffffffffffffffffffffffffffffffffffffffff1673ffffffffffffffffffffffffffffffffffffffff166323b872dd3330866040518463ffffffff167c0100000000000000000000000000000000000000000000000000000000028152600401808473ffffffffffffffffffffffffffffffffffffffff1673ffffffffffffffffffffffffffffffffffffffff1681526020018373ffffffffffffffffffffffffffffffffffffffff1673ffffffffffffffffffffffffffffffffffffffff1681526020018281526020019350505050602060405180830381600087803b15801561030057600080fd5b505af1158015610314573d6000803e3d6000fd5b505050506040513d602081101561032a57600080fd5b8101908080519060200190929190505050508115610447578260046000866000191660001916815260200190815260200160002060040160003373ffffffffffffffffffffffffffffffffffffffff1673ffffffffffffffffffffffffffffffffffffffff168152602001908152602001600020540160046000866000191660001916815260200190815260200160002060040160003373ffffffffffffffffffffffffffffffffffffffff1673ffffffffffffffffffffffffffffffffffffffff1681526020019081526020016000208190555082600460008660001916600019168152602001908152602001600020600601540160046000866000191660001916815260200190815260200160002060060181905550610548565b8260046000866000191660001916815260200190815260200160002060030160003373ffffffffffffffffffffffffffffffffffffffff1673ffffffffffffffffffffffffffffffffffffffff168152602001908152602001600020540160046000866000191660001916815260200190815260200160002060030160003373ffffffffffffffffffffffffffffffffffffffff1673ffffffffffffffffffffffffffffffffffffffff16815260200190815260200160002081905550826004600086600019166000191681526020019081526020016000206005015401600460008660001916600019168152602001908152602001600020600501819055505b60019050610556565b600090505b9392505050565b600080600060046000856000191660001916815260200190815260200160002060010154141580156105b7575060046000846000191660001916815260200190815260200160002060020160009054906101000a900460ff165b80156105e45750426001546004600086600019166000191681526020019081526020016000206001015401115b1561093e57600060046000856000191660001916815260200190815260200160002060020160006101000a81548160ff02191690831515021790555061070760646106f96000809054906101000a900473ffffffffffffffffffffffffffffffffffffffff1673ffffffffffffffffffffffffffffffffffffffff166318160ddd6040518163ffffffff167c0100000000000000000000000000000000000000000000000000000000028152600401602060405180830381600087803b1580156106ad57600080fd5b505af11580156106c1573d6000803e3d6000fd5b505050506040513d60208110156106d757600080fd5b81019080805190602001909291905050506002546113ff90919063ffffffff16565b61143d90919063ffffffff16565b905080600460008560001916600019168152602001908152602001600020600601546004600086600019166000191681526020019081526020016000206005015401111561093557600160046000856000191660001916815260200190815260200160002060080160016101000a81548160ff0219169083151502179055506004600084600019166000191681526020019081526020016000206005015460046000856000191660001916815260200190815260200160002060060154111561088b5761082d6004600085600019166000191681526020019081526020016000206006015461081f6103e8600460008860001916600019168152602001908152602001600020600501546113ff90919063ffffffff16565b61143d90919063ffffffff16565b60046000856000191660001916815260200190815260200160002060070181905550600160046000856000191660001916815260200190815260200160002060080160006101000a81548160ff021916908315150217905550610934565b6108da600460008560001916600019168152602001908152602001600020600501546004600086600019166000191681526020019081526020016000206006015461143d90919063ffffffff16565b60046000856000191660001916815260200190815260200160002060070181905550600060046000856000191660001916815260200190815260200160002060080160006101000a81548160ff0219169083151502179055505b5b60019150610943565b600091505b50919050565b600080600460008460001916600019168152602001908152602001600020600101541415610bfa576000809054906101000a900473ffffffffffffffffffffffffffffffffffffffff1673ffffffffffffffffffffffffffffffffffffffff166323b872dd33306003546040518463ffffffff167c0100000000000000000000000000000000000000000000000000000000028152600401808473ffffffffffffffffffffffffffffffffffffffff1673ffffffffffffffffffffffffffffffffffffffff1681526020018373ffffffffffffffffffffffffffffffffffffffff1673ffffffffffffffffffffffffffffffffffffffff1681526020018281526020019350505050602060405180830381600087803b158015610a6b57600080fd5b505af1158015610a7f573d6000803e3d6000fd5b505050506040513d6020811015610a9557600080fd5b810190808051906020019092919050505050610100604051908101604052803373ffffffffffffffffffffffffffffffffffffffff1681526020014281526020016001151581526020016000815260200160008152602001600081526020016000151581526020016000151581525060046000846000191660001916815260200190815260200160002060008201518160000160006101000a81548173ffffffffffffffffffffffffffffffffffffffff021916908373ffffffffffffffffffffffffffffffffffffffff1602179055506020820151816001015560408201518160020160006101000a81548160ff021916908315150217905550606082015181600501556080820151816006015560a0820151816007015560c08201518160080160006101000a81548160ff02191690831515021790555060e08201518160080160016101000a81548160ff02191690831515021790555090505060019050610bff565b600090505b919050565b600080600061010085859050101515610c1c57600080fd5b600090505b848490508160ff1610156112ac5760006004600087878560ff168181101515610c4657fe5b9050602002013560001916600019166000191681526020019081526020016000206001015414151561129f576004600086868460ff168181101515610c8757fe5b90506020020135600019166000191660001916815260200190815260200160002060080160019054906101000a900460ff161515610eaf576004600086868460ff168181101515610cd457fe5b90506020020135600019166000191660001916815260200190815260200160002060030160003373ffffffffffffffffffffffffffffffffffffffff1673ffffffffffffffffffffffffffffffffffffffff168152602001908152602001600020546004600087878560ff168181101515610d4b57fe5b90506020020135600019166000191660001916815260200190815260200160002060040160003373ffffffffffffffffffffffffffffffffffffffff1673ffffffffffffffffffffffffffffffffffffffff16815260200190815260200160002054830101915060006004600087878560ff168181101515610dc957fe5b90506020020135600019166000191660001916815260200190815260200160002060040160003373ffffffffffffffffffffffffffffffffffffffff1673ffffffffffffffffffffffffffffffffffffffff1681526020019081526020016000208190555060006004600087878560ff168181101515610e4557fe5b90506020020135600019166000191660001916815260200190815260200160002060030160003373ffffffffffffffffffffffffffffffffffffffff1673ffffffffffffffffffffffffffffffffffffffff1681526020019081526020016000208190555061129e565b6004600086868460ff168181101515610ec457fe5b90506020020135600019166000191660001916815260200190815260200160002060080160009054906101000a900460ff16156110ce57610fd16103e8610fc36004600089898760ff168181101515610f1957fe5b90506020020135600019166000191660001916815260200190815260200160002060040160003373ffffffffffffffffffffffffffffffffffffffff1673ffffffffffffffffffffffffffffffffffffffff16815260200190815260200160002054600460008a8a8860ff168181101515610f9057fe5b905060200201356000191660001916600019168152602001908152602001600020600701546113ff90919063ffffffff16565b61143d90919063ffffffff16565b6004600087878560ff168181101515610fe657fe5b90506020020135600019166000191660001916815260200190815260200160002060040160003373ffffffffffffffffffffffffffffffffffffffff1673ffffffffffffffffffffffffffffffffffffffff16815260200190815260200160002054830101915060006004600087878560ff16818110151561106457fe5b90506020020135600019166000191660001916815260200190815260200160002060040160003373ffffffffffffffffffffffffffffffffffffffff1673ffffffffffffffffffffffffffffffffffffffff1681526020019081526020016000208190555061129d565b6111a46103e86111966004600089898760ff1681811015156110ec57fe5b90506020020135600019166000191660001916815260200190815260200160002060030160003373ffffffffffffffffffffffffffffffffffffffff1673ffffffffffffffffffffffffffffffffffffffff16815260200190815260200160002054600460008a8a8860ff16818110151561116357fe5b905060200201356000191660001916600019168152602001908152602001600020600701546113ff90919063ffffffff16565b61143d90919063ffffffff16565b6004600087878560ff1681811015156111b957fe5b90506020020135600019166000191660001916815260200190815260200160002060030160003373ffffffffffffffffffffffffffffffffffffffff1673ffffffffffffffffffffffffffffffffffffffff16815260200190815260200160002054830101915060006004600087878560ff16818110151561123757fe5b90506020020135600019166000191660001916815260200190815260200160002060030160003373ffffffffffffffffffffffffffffffffffffffff1673ffffffffffffffffffffffffffffffffffffffff168152602001908152602001600020819055505b5b5b8080600101915050610c21565b60008211156113f2576000809054906101000a900473ffffffffffffffffffffffffffffffffffffffff1673ffffffffffffffffffffffffffffffffffffffff166323b872dd3033856040518463ffffffff167c0100000000000000000000000000000000000000000000000000000000028152600401808473ffffffffffffffffffffffffffffffffffffffff1673ffffffffffffffffffffffffffffffffffffffff1681526020018373ffffffffffffffffffffffffffffffffffffffff1673ffffffffffffffffffffffffffffffffffffffff1681526020018281526020019350505050602060405180830381600087803b1580156113ad57600080fd5b505af11580156113c1573d6000803e3d6000fd5b505050506040513d60208110156113d757600080fd5b810190808051906020019092919050505050600192506113f7565b600092505b505092915050565b60008060008414156114145760009150611436565b828402905082848281151561142557fe5b0414151561143257600080fd5b8091505b5092915050565b60008060008311151561144f57600080fd5b828481151561145a57fe5b04905080915050929150505600a165627a7a7230582052b274247fb3b8723f0491cbf28f273d7adf502bdc517910db09104dbce6d3000029",
  "source": "pragma solidity ^0.4.24;\n\nimport \"openzeppelin-solidity/contracts/math/SafeMath.sol\";\nimport \"openzeppelin-solidity/contracts/token/ERC20/ERC20Mintable.sol\";\n\n/// @title TweEthVoter\n/// @author nemild mtlapinski\n\ncontract TweEthVoter { // CapWords\n  using SafeMath for uint256;\n\n  ERC20Mintable private tokenAddress; \n  uint256 private votingLength = 10 minutes;\n  uint256 private quorumTokensPercentage;\n  uint256 private proposerAmount; // the amount the proposer has staked to submit the tweet \n\n  struct Proposal {\n    address proposer;\n    uint256 startTime;\n    bool open;\n    mapping(address => uint256) noVotes;\n    mapping(address => uint256) yesVotes;\n\n    uint256 noTotal;\n    uint256 yesTotal;\n    uint256 bonus;\n\n    bool yesWon;\n    bool quorumPassed;\n  }\n\n  mapping(bytes32 => Proposal) private uuidToProposals;\n\n  /// @param _tokenAddress Address of ERC20 token contract\n  /// @param _quorumTokensPercentage Percentage of tokens needed to reach quorum\n  /// @param _proposerAmount Number of tokens required to submit a proposed tweet\n  constructor(\n    address _tokenAddress,\n    uint256 _quorumTokensPercentage,\n    uint256 _proposerAmount) public {\n    tokenAddress = ERC20Mintable(_tokenAddress);\n    quorumTokensPercentage = _quorumTokensPercentage;\n    proposerAmount = _proposerAmount;\n  }\n\n  function propose(bytes32 id) external returns (bool success) {\n    // Store\n    if(uuidToProposals[id].startTime == 0) { // test if ID does not exist\n      tokenAddress.transferFrom(msg.sender, this, proposerAmount);\n\n      uuidToProposals[id] = Proposal({\n        proposer: msg.sender, // Added for transparency, not internal usage\n        startTime: now,\n        open: true,\n        noTotal: 0,\n        yesTotal: 0,\n        bonus: 0,\n        yesWon: false,\n        quorumPassed: false\n      });\n      return true;\n    }\n\n    return false;\n  }\n\n  function vote(bytes32 id, uint256 amount, bool voteYes) external returns (bool success) {\n    if(uuidToProposals[id].startTime != 0 && uuidToProposals[id].open){\n      tokenAddress.transferFrom(msg.sender, this, amount);\n\n      if(voteYes){\n        uuidToProposals[id].yesVotes[msg.sender] = uuidToProposals[id].yesVotes[msg.sender] + amount;\n        uuidToProposals[id].yesTotal = uuidToProposals[id].yesTotal + amount; \n      } else {\n        uuidToProposals[id].noVotes[msg.sender] = uuidToProposals[id].noVotes[msg.sender] + amount;\n        uuidToProposals[id].noTotal = uuidToProposals[id].noTotal + amount; \n      }\n\n      return true;\n    }\n\n    return false;\n  }\n\n  function close(bytes32 id) external returns (bool success) {\n    if(\n        uuidToProposals[id].startTime != 0 && \n        uuidToProposals[id].open && \n        uuidToProposals[id].startTime + votingLength > now\n      ){\n        // 1. Close\n        uuidToProposals[id].open = false;\n\n        // 2. Determine winner\n        uint256 minTokensRequired = quorumTokensPercentage.mul(tokenAddress.totalSupply()).div(100);\n\n        if((uuidToProposals[id].noTotal + uuidToProposals[id].yesTotal) > minTokensRequired) { // quorum passed\n          uuidToProposals[id].quorumPassed = true;\n          if(uuidToProposals[id].yesTotal > uuidToProposals[id].noTotal) { // yes votes won\n            uuidToProposals[id].bonus = uuidToProposals[id].noTotal.mul(1000).div(uuidToProposals[id].yesTotal); // TODO fix 1000 \n            uuidToProposals[id].yesWon = true;\n          } else { //no votes won\n            uuidToProposals[id].bonus = uuidToProposals[id].yesTotal.div(uuidToProposals[id].noTotal);\n            uuidToProposals[id].yesWon = false;\n          }\n        }\n        \n        return true;\n      }\n    return false;\n  }\n\n  function claim(bytes32[] ids) external returns (bool sent) {\n    uint256 tokenSum; //TODO memory??\n\n    require(ids.length < 256);\n\n    for (uint8 i = 0; i < ids.length; i++){\n      if(uuidToProposals[ids[i]].startTime != 0) {\n\n        if(!uuidToProposals[ids[i]].quorumPassed) {\n          tokenSum = tokenSum + \n            uuidToProposals[ids[i]].yesVotes[msg.sender] + \n            uuidToProposals[ids[i]].noVotes[msg.sender];\n\n            uuidToProposals[ids[i]].yesVotes[msg.sender] = 0;\n            uuidToProposals[ids[i]].noVotes[msg.sender] = 0;\n        } else if(uuidToProposals[ids[i]].yesWon) {\n          tokenSum = tokenSum + \n                    uuidToProposals[ids[i]].yesVotes[msg.sender] + \n                    uuidToProposals[ids[i]].bonus.mul(uuidToProposals[ids[i]].yesVotes[msg.sender]).div(1000);\n\n          uuidToProposals[ids[i]].yesVotes[msg.sender] = 0;\n        } else {\n          tokenSum = tokenSum + \n                    uuidToProposals[ids[i]].noVotes[msg.sender] + \n                    uuidToProposals[ids[i]].bonus.mul(uuidToProposals[ids[i]].noVotes[msg.sender]).div(1000);\n          uuidToProposals[ids[i]].noVotes[msg.sender] = 0;\n        }\n      }\n    }\n\n    if (tokenSum > 0) {\n      tokenAddress.transferFrom(this, msg.sender, tokenSum);\n      return true;\n    }\n\n    return false;\n  }\n}",
  "sourcePath": "/Users/nemild/dev/ethsf/TweEthContract/contracts/TweEthVoter.sol",
  "compiler": {
    "name": "solc",
    "version": "0.4.24+commit.e67f0147.Emscripten.clang"
  },
  "schemaVersion": "2.0.1",
  "updatedAt": "2018-10-06T09:22:18.292Z"
}